{
  "contractName": "Lottery",
  "abi": [
    {
      "constant": true,
      "inputs": [
        {
          "internalType": "uint256",
          "name": "",
          "type": "uint256"
        }
      ],
      "name": "addressList",
      "outputs": [
        {
          "internalType": "address",
          "name": "",
          "type": "address"
        }
      ],
      "payable": false,
      "stateMutability": "view",
      "type": "function"
    },
    {
      "constant": true,
      "inputs": [
        {
          "internalType": "uint256",
          "name": "",
          "type": "uint256"
        }
      ],
      "name": "indexList",
      "outputs": [
        {
          "internalType": "uint256",
          "name": "",
          "type": "uint256"
        }
      ],
      "payable": false,
      "stateMutability": "view",
      "type": "function"
    },
    {
      "constant": false,
      "inputs": [
        {
          "internalType": "address",
          "name": "newAddress",
          "type": "address"
        }
      ],
      "name": "addAddress",
      "outputs": [],
      "payable": false,
      "stateMutability": "nonpayable",
      "type": "function"
    },
    {
      "constant": false,
      "inputs": [],
      "name": "setRandomIndex",
      "outputs": [],
      "payable": false,
      "stateMutability": "nonpayable",
      "type": "function"
    },
    {
      "constant": true,
      "inputs": [
        {
          "internalType": "uint256",
          "name": "removeNumber",
          "type": "uint256"
        }
      ],
      "name": "getRemovedAddressList",
      "outputs": [
        {
          "internalType": "address[]",
          "name": "newAddressList",
          "type": "address[]"
        }
      ],
      "payable": false,
      "stateMutability": "view",
      "type": "function"
    },
    {
      "constant": true,
      "inputs": [],
      "name": "getAddressLength",
      "outputs": [
        {
          "internalType": "uint256",
          "name": "",
          "type": "uint256"
        }
      ],
      "payable": false,
      "stateMutability": "view",
      "type": "function"
    },
    {
      "constant": true,
      "inputs": [],
      "name": "getIndexLength",
      "outputs": [
        {
          "internalType": "uint256",
          "name": "",
          "type": "uint256"
        }
      ],
      "payable": false,
      "stateMutability": "view",
      "type": "function"
    }
  ],
  "bytecode": "0x608060405234801561001057600080fd5b5061064e806100206000396000f3fe608060405234801561001057600080fd5b506004361061007d5760003560e01c806386ae6e6d1161005b57806386ae6e6d14610167578063876ce18f14610171578063b810fb43146101b3578063e1ba7d01146102215761007d565b80631ae17bb51461008257806338eada1c146101055780633b3672bd14610149575b600080fd5b6100ae6004803603602081101561009857600080fd5b810190808035906020019092919050505061023f565b6040518080602001828103825283818151815260200191508051906020019060200280838360005b838110156100f15780820151818401526020810190506100d6565b505050509050019250505060405180910390f35b6101476004803603602081101561011b57600080fd5b81019080803573ffffffffffffffffffffffffffffffffffffffff169060200190929190505050610361565b005b6101516103ca565b6040518082815260200191505060405180910390f35b61016f6103d6565b005b61019d6004803603602081101561018757600080fd5b810190808035906020019092919050505061053d565b6040518082815260200191505060405180910390f35b6101df600480360360208110156101c957600080fd5b810190808035906020019092919050505061055e565b604051808273ffffffffffffffffffffffffffffffffffffffff1673ffffffffffffffffffffffffffffffffffffffff16815260200191505060405180910390f35b61022961059a565b6040518082815260200191505060405180910390f35b6060816000805490501161025257600080fd5b6000805490506001805490501461026857600080fd5b816000805490500360405190808252806020026020018201604052801561029e5781602001602082028038833980820191505090505b50905060008090505b8260008054905003811015610358576000600182815481106102c557fe5b9060005260206000200154815481106102da57fe5b9060005260206000200160009054906101000a900473ffffffffffffffffffffffffffffffffffffffff1682828151811061031157fe5b602002602001019073ffffffffffffffffffffffffffffffffffffffff16908173ffffffffffffffffffffffffffffffffffffffff168152505080806001019150506102a7565b50809050919050565b60008190806001815401808255809150509060018203906000526020600020016000909192909190916101000a81548173ffffffffffffffffffffffffffffffffffffffff021916908373ffffffffffffffffffffffffffffffffffffffff1602179055505050565b60008080549050905090565b600080805490509050600081116103ec57600080fd5b8060405190808252806020026020018201604052801561041b5781602001602082028038833980820191505090505b50600190805190602001906104319291906105a7565b5060008090505b8181101561046957806001828154811061044e57fe5b90600052602060002001819055508080600101915050610438565b5060008190505b6002811061053957600060018203424460405160200180838152602001828152602001925050506040516020818303038152906040528051906020012060001c816104b757fe5b06905060006001808403815481106104cb57fe5b90600052602060002001549050600182815481106104e557fe5b90600052602060002001546001808503815481106104ff57fe5b9060005260206000200181905550806001838154811061051b57fe5b90600052602060002001819055505050808060019003915050610470565b5050565b6001818154811061054a57fe5b906000526020600020016000915090505481565b6000818154811061056b57fe5b906000526020600020016000915054906101000a900473ffffffffffffffffffffffffffffffffffffffff1681565b6000600180549050905090565b8280548282559060005260206000209081019282156105e3579160200282015b828111156105e25782518255916020019190600101906105c7565b5b5090506105f091906105f4565b5090565b61061691905b808211156106125760008160009055506001016105fa565b5090565b9056fea265627a7a723158203271e0482dc0475e90961363f5d2766feb7b3cb811ad56dc7b42e42ddcf97d1164736f6c63430005100032",
  "source": "pragma solidity ^0.5.16;\r\n\r\ncontract Lottery {\r\n    address[] public addressList;  // original array of address\r\n    uint256[] public indexList;\r\n    \r\n    /*\r\n        Input - newAddress: new address to be added to addressList\r\n    */\r\n\r\n    function addAddress(address newAddress) external {\r\n        addressList.push(newAddress);\r\n    }\r\n    \r\n    /*\r\n        You should call this function before calling getRemovedAddressList\r\n        So, you should call setRandomIndex() and then call getRemovedAddressList\r\n        This function contains the algorithm called shuffle.\r\n    */\r\n\r\n    function setRandomIndex() external {\r\n        uint length = addressList.length;\r\n        require(length > 0);\r\n        indexList = new uint256[](length);\r\n        for (uint i = 0; i < length; i ++) {\r\n            indexList[i] = i;\r\n        }\r\n        for (uint i = length; i >= 2; i --) {\r\n            uint256 rand = uint256(keccak256(abi.encodePacked(block.timestamp, block.difficulty))) % (i-1);\r\n            uint temp = indexList[i - 1];\r\n            indexList[i - 1] = indexList[rand];\r\n            indexList[rand] = temp;\r\n        }\r\n    }\r\n    \r\n    /*\r\n        @Input - removeNumber : number to be removed from original array (addressList)\r\n        @Output - newAddressList : new generated array from original array (addressList)\r\n    */\r\n\r\n    function getRemovedAddressList(uint removeNumber) external view returns(address[] memory newAddressList) {\r\n        require(addressList.length > removeNumber);\r\n        require(indexList.length == addressList.length);\r\n        newAddressList = new address[](addressList.length - removeNumber);\r\n        for (uint i = 0; i < addressList.length - removeNumber; i ++) {\r\n            newAddressList[i] = addressList[indexList[i]];\r\n        }\r\n        return newAddressList;\r\n    }\r\n\r\n    /*\r\n        For unit test\r\n    */\r\n\r\n    function getAddressLength() public view returns(uint) {\r\n        return addressList.length;\r\n    }\r\n\r\n    function getIndexLength() public view returns(uint) {\r\n        return indexList.length;\r\n    }\r\n}\r\n",
  "sourcePath": "D:\\Current\\on-chain Lottery\\Lottery\\contracts\\Lottery.sol",
  "compiler": {
    "name": "solc",
    "version": "0.5.16+commit.9c3226ce.Emscripten.clang"
  },
  "schemaVersion": "3.4.3",
  "updatedAt": "2021-10-13T05:10:49.713Z",
  "networkType": "ethereum",
  "devdoc": {
    "methods": {}
  },
  "userdoc": {
    "methods": {}
  }
}